{"abi":[{"type":"constructor","inputs":[],"stateMutability":"nonpayable"},{"type":"function","name":"IDENTITY_PRECOMPILE","inputs":[],"outputs":[{"name":"","type":"address","internalType":"contract IIdentity"}],"stateMutability":"view"},{"type":"function","name":"approve","inputs":[{"name":"to","type":"address","internalType":"address"},{"name":"tokenId","type":"uint256","internalType":"uint256"}],"outputs":[],"stateMutability":"nonpayable"},{"type":"function","name":"balanceOf","inputs":[{"name":"owner","type":"address","internalType":"address"}],"outputs":[{"name":"","type":"uint256","internalType":"uint256"}],"stateMutability":"view"},{"type":"function","name":"getApproved","inputs":[{"name":"tokenId","type":"uint256","internalType":"uint256"}],"outputs":[{"name":"","type":"address","internalType":"address"}],"stateMutability":"view"},{"type":"function","name":"getProfileCID","inputs":[{"name":"user","type":"address","internalType":"address"}],"outputs":[{"name":"","type":"string","internalType":"string"}],"stateMutability":"view"},{"type":"function","name":"isApprovedForAll","inputs":[{"name":"owner","type":"address","internalType":"address"},{"name":"operator","type":"address","internalType":"address"}],"outputs":[{"name":"","type":"bool","internalType":"bool"}],"stateMutability":"view"},{"type":"function","name":"mintProfile","inputs":[{"name":"cid","type":"string","internalType":"string"}],"outputs":[],"stateMutability":"nonpayable"},{"type":"function","name":"name","inputs":[],"outputs":[{"name":"","type":"string","internalType":"string"}],"stateMutability":"view"},{"type":"function","name":"owner","inputs":[],"outputs":[{"name":"","type":"address","internalType":"address"}],"stateMutability":"view"},{"type":"function","name":"ownerOf","inputs":[{"name":"tokenId","type":"uint256","internalType":"uint256"}],"outputs":[{"name":"","type":"address","internalType":"address"}],"stateMutability":"view"},{"type":"function","name":"renounceOwnership","inputs":[],"outputs":[],"stateMutability":"nonpayable"},{"type":"function","name":"safeTransferFrom","inputs":[{"name":"from","type":"address","internalType":"address"},{"name":"to","type":"address","internalType":"address"},{"name":"tokenId","type":"uint256","internalType":"uint256"}],"outputs":[],"stateMutability":"nonpayable"},{"type":"function","name":"safeTransferFrom","inputs":[{"name":"from","type":"address","internalType":"address"},{"name":"to","type":"address","internalType":"address"},{"name":"tokenId","type":"uint256","internalType":"uint256"},{"name":"data","type":"bytes","internalType":"bytes"}],"outputs":[],"stateMutability":"nonpayable"},{"type":"function","name":"setApprovalForAll","inputs":[{"name":"operator","type":"address","internalType":"address"},{"name":"approved","type":"bool","internalType":"bool"}],"outputs":[],"stateMutability":"nonpayable"},{"type":"function","name":"supportsInterface","inputs":[{"name":"interfaceId","type":"bytes4","internalType":"bytes4"}],"outputs":[{"name":"","type":"bool","internalType":"bool"}],"stateMutability":"view"},{"type":"function","name":"symbol","inputs":[],"outputs":[{"name":"","type":"string","internalType":"string"}],"stateMutability":"view"},{"type":"function","name":"tokenURI","inputs":[{"name":"tokenId","type":"uint256","internalType":"uint256"}],"outputs":[{"name":"","type":"string","internalType":"string"}],"stateMutability":"view"},{"type":"function","name":"transferFrom","inputs":[{"name":"from","type":"address","internalType":"address"},{"name":"to","type":"address","internalType":"address"},{"name":"tokenId","type":"uint256","internalType":"uint256"}],"outputs":[],"stateMutability":"nonpayable"},{"type":"function","name":"transferOwnership","inputs":[{"name":"newOwner","type":"address","internalType":"address"}],"outputs":[],"stateMutability":"nonpayable"},{"type":"event","name":"Approval","inputs":[{"name":"owner","type":"address","indexed":true,"internalType":"address"},{"name":"approved","type":"address","indexed":true,"internalType":"address"},{"name":"tokenId","type":"uint256","indexed":true,"internalType":"uint256"}],"anonymous":false},{"type":"event","name":"ApprovalForAll","inputs":[{"name":"owner","type":"address","indexed":true,"internalType":"address"},{"name":"operator","type":"address","indexed":true,"internalType":"address"},{"name":"approved","type":"bool","indexed":false,"internalType":"bool"}],"anonymous":false},{"type":"event","name":"OwnershipTransferred","inputs":[{"name":"previousOwner","type":"address","indexed":true,"internalType":"address"},{"name":"newOwner","type":"address","indexed":true,"internalType":"address"}],"anonymous":false},{"type":"event","name":"ProfileMinted","inputs":[{"name":"user","type":"address","indexed":true,"internalType":"address"},{"name":"tokenId","type":"uint256","indexed":true,"internalType":"uint256"},{"name":"cid","type":"string","indexed":false,"internalType":"string"}],"anonymous":false},{"type":"event","name":"Transfer","inputs":[{"name":"from","type":"address","indexed":true,"internalType":"address"},{"name":"to","type":"address","indexed":true,"internalType":"address"},{"name":"tokenId","type":"uint256","indexed":true,"internalType":"uint256"}],"anonymous":false},{"type":"error","name":"ERC721IncorrectOwner","inputs":[{"name":"sender","type":"address","internalType":"address"},{"name":"tokenId","type":"uint256","internalType":"uint256"},{"name":"owner","type":"address","internalType":"address"}]},{"type":"error","name":"ERC721InsufficientApproval","inputs":[{"name":"operator","type":"address","internalType":"address"},{"name":"tokenId","type":"uint256","internalType":"uint256"}]},{"type":"error","name":"ERC721InvalidApprover","inputs":[{"name":"approver","type":"address","internalType":"address"}]},{"type":"error","name":"ERC721InvalidOperator","inputs":[{"name":"operator","type":"address","internalType":"address"}]},{"type":"error","name":"ERC721InvalidOwner","inputs":[{"name":"owner","type":"address","internalType":"address"}]},{"type":"error","name":"ERC721InvalidReceiver","inputs":[{"name":"receiver","type":"address","internalType":"address"}]},{"type":"error","name":"ERC721InvalidSender","inputs":[{"name":"sender","type":"address","internalType":"address"}]},{"type":"error","name":"ERC721NonexistentToken","inputs":[{"name":"tokenId","type":"uint256","internalType":"uint256"}]},{"type":"error","name":"OwnableInvalidOwner","inputs":[{"name":"owner","type":"address","internalType":"address"}]},{"type":"error","name":"OwnableUnauthorizedAccount","inputs":[{"name":"account","type":"address","internalType":"address"}]}],"bytecode":{"object":"0x608060405234801561000f575f5ffd5b50336040518060400160405280600f81526020017f546f6b656e34322050726f66696c6500000000000000000000000000000000008152506040518060400160405280600481526020017f5434325000000000000000000000000000000000000000000000000000000000815250815f908161008b9190610434565b50806001908161009b9190610434565b5050505f73ffffffffffffffffffffffffffffffffffffffff168173ffffffffffffffffffffffffffffffffffffffff160361010e575f6040517f1e4fbdf70000000000000000000000000000000000000000000000000000000081526004016101059190610542565b60405180910390fd5b61011d8161012360201b60201c565b5061055b565b5f60065f9054906101000a900473ffffffffffffffffffffffffffffffffffffffff1690508160065f6101000a81548173ffffffffffffffffffffffffffffffffffffffff021916908373ffffffffffffffffffffffffffffffffffffffff1602179055508173ffffffffffffffffffffffffffffffffffffffff168173ffffffffffffffffffffffffffffffffffffffff167f8be0079c531659141344cd1fd0a4f28419497f9722a3daafe3b4186f6b6457e060405160405180910390a35050565b5f81519050919050565b7f4e487b71000000000000000000000000000000000000000000000000000000005f52604160045260245ffd5b7f4e487b71000000000000000000000000000000000000000000000000000000005f52602260045260245ffd5b5f600282049050600182168061026157607f821691505b6020821081036102745761027361021d565b5b50919050565b5f819050815f5260205f209050919050565b5f6020601f8301049050919050565b5f82821b905092915050565b5f600883026102d67fffffffffffffffffffffffffffffffffffffffffffffffffffffffffffffffff8261029b565b6102e0868361029b565b95508019841693508086168417925050509392505050565b5f819050919050565b5f819050919050565b5f61032461031f61031a846102f8565b610301565b6102f8565b9050919050565b5f819050919050565b61033d8361030a565b6103516103498261032b565b8484546102a7565b825550505050565b5f5f905090565b610368610359565b610373818484610334565b505050565b5f5b828110156103995761038e5f828401610360565b60018101905061037a565b505050565b601f8211156103ec57828211156103eb576103b88161027a565b6103c18361028c565b6103ca8561028c565b60208610156103d7575f90505b8083016103e682840382610378565b505050505b5b505050565b5f82821c905092915050565b5f61040c5f19846008026103f1565b1980831691505092915050565b5f61042483836103fd565b9150826002028217905092915050565b61043d826101e6565b67ffffffffffffffff811115610456576104556101f0565b5b610460825461024a565b61046b82828561039e565b5f60209050601f83116001811461049c575f841561048a578287015190505b6104948582610419565b8655506104fb565b601f1984166104aa8661027a565b5f5b828110156104d1578489015182556001820191506020850194506020810190506104ac565b868310156104ee57848901516104ea601f8916826103fd565b8355505b6001600288020188555050505b505050505050565b5f73ffffffffffffffffffffffffffffffffffffffff82169050919050565b5f61052c82610503565b9050919050565b61053c81610522565b82525050565b5f6020820190506105555f830184610533565b92915050565b612c2b806105685f395ff3fe608060405234801561000f575f5ffd5b506004361061011f575f3560e01c8063715018a6116100ab578063b88d4fde1161006f578063b88d4fde146102f1578063c87b56dd1461030d578063de8b05be1461033d578063e985e9c51461036d578063f2fde38b1461039d5761011f565b8063715018a6146102735780638da5cb5b1461027d57806395d89b411461029b578063a22cb465146102b9578063ad55601d146102d55761011f565b806323b872dd116100f257806323b872dd146101bd57806342842e0e146101d9578063532e5ae1146101f55780636352211e1461021357806370a08231146102435761011f565b806301ffc9a71461012357806306fdde0314610153578063081812fc14610171578063095ea7b3146101a1575b5f5ffd5b61013d60048036038101906101389190611dff565b6103b9565b60405161014a9190611e44565b60405180910390f35b61015b61049a565b6040516101689190611ecd565b60405180910390f35b61018b60048036038101906101869190611f20565b610529565b6040516101989190611f8a565b60405180910390f35b6101bb60048036038101906101b69190611fcd565b610544565b005b6101d760048036038101906101d2919061200b565b61055a565b005b6101f360048036038101906101ee919061200b565b610659565b005b6101fd610678565b60405161020a91906120b6565b60405180910390f35b61022d60048036038101906102289190611f20565b61067e565b60405161023a9190611f8a565b60405180910390f35b61025d600480360381019061025891906120cf565b61068f565b60405161026a9190612109565b60405180910390f35b61027b610745565b005b610285610758565b6040516102929190611f8a565b60405180910390f35b6102a3610780565b6040516102b09190611ecd565b60405180910390f35b6102d360048036038101906102ce919061214c565b610810565b005b6102ef60048036038101906102ea91906122b6565b610826565b005b61030b6004803603810190610306919061239b565b610ad1565b005b61032760048036038101906103229190611f20565b610af6565b6040516103349190611ecd565b60405180910390f35b610357600480360381019061035291906120cf565b610b5c565b6040516103649190611ecd565b60405180910390f35b6103876004803603810190610382919061241b565b610cc3565b6040516103949190611e44565b60405180910390f35b6103b760048036038101906103b291906120cf565b610d51565b005b5f7f80ac58cd000000000000000000000000000000000000000000000000000000007bffffffffffffffffffffffffffffffffffffffffffffffffffffffff1916827bffffffffffffffffffffffffffffffffffffffffffffffffffffffff1916148061048357507f5b5e139f000000000000000000000000000000000000000000000000000000007bffffffffffffffffffffffffffffffffffffffffffffffffffffffff1916827bffffffffffffffffffffffffffffffffffffffffffffffffffffffff1916145b80610493575061049282610dd5565b5b9050919050565b60605f80546104a890612486565b80601f01602080910402602001604051908101604052809291908181526020018280546104d490612486565b801561051f5780601f106104f65761010080835404028352916020019161051f565b820191905f5260205f20905b81548152906001019060200180831161050257829003601f168201915b5050505050905090565b5f61053382610e3e565b5061053d82610ec4565b9050919050565b6105568282610551610efd565b610f04565b5050565b5f73ffffffffffffffffffffffffffffffffffffffff168273ffffffffffffffffffffffffffffffffffffffff16036105ca575f6040517f64a0ae920000000000000000000000000000000000000000000000000000000081526004016105c19190611f8a565b60405180910390fd5b5f6105dd83836105d8610efd565b610f16565b90508373ffffffffffffffffffffffffffffffffffffffff168173ffffffffffffffffffffffffffffffffffffffff1614610653578382826040517f64283d7b00000000000000000000000000000000000000000000000000000000815260040161064a939291906124b6565b60405180910390fd5b50505050565b61067383838360405180602001604052805f815250610ad1565b505050565b61090181565b5f61068882610e3e565b9050919050565b5f5f73ffffffffffffffffffffffffffffffffffffffff168273ffffffffffffffffffffffffffffffffffffffff1603610700575f6040517f89c62b640000000000000000000000000000000000000000000000000000000081526004016106f79190611f8a565b60405180910390fd5b60035f8373ffffffffffffffffffffffffffffffffffffffff1673ffffffffffffffffffffffffffffffffffffffff1681526020019081526020015f20549050919050565b61074d610fe0565b6107565f611067565b565b5f60065f9054906101000a900473ffffffffffffffffffffffffffffffffffffffff16905090565b60606001805461078f90612486565b80601f01602080910402602001604051908101604052809291908181526020018280546107bb90612486565b80156108065780601f106107dd57610100808354040283529160200191610806565b820191905f5260205f20905b8154815290600101906020018083116107e957829003601f168201915b5050505050905090565b61082261081b610efd565b838361112a565b5050565b600a5f3373ffffffffffffffffffffffffffffffffffffffff1673ffffffffffffffffffffffffffffffffffffffff1681526020019081526020015f205f9054906101000a900460ff16156108b0576040517f08c379a00000000000000000000000000000000000000000000000000000000081526004016108a790612535565b60405180910390fd5b61090173ffffffffffffffffffffffffffffffffffffffff1663eeb339f8336040518263ffffffff1660e01b81526004016108eb9190611f8a565b602060405180830381865afa92505050801561092557506040513d601f19601f820116820180604052508101906109229190612567565b60015b610964576040517f08c379a000000000000000000000000000000000000000000000000000000000815260040161095b90612602565b60405180910390fd5b806109a4576040517f08c379a000000000000000000000000000000000000000000000000000000000815260040161099b9061266a565b60405180910390fd5b505f60075f8154809291906109b8906126b5565b9190505590506109c83382611303565b8160085f8381526020019081526020015f2090816109e691906128a4565b508060095f3373ffffffffffffffffffffffffffffffffffffffff1673ffffffffffffffffffffffffffffffffffffffff1681526020019081526020015f20819055506001600a5f3373ffffffffffffffffffffffffffffffffffffffff1673ffffffffffffffffffffffffffffffffffffffff1681526020019081526020015f205f6101000a81548160ff021916908315150217905550803373ffffffffffffffffffffffffffffffffffffffff167f798b0091a4723034912e9709e44d3648844a13048313ae4f9590c21bfc56586b84604051610ac59190611ecd565b60405180910390a35050565b610adc84848461055a565b610af0610ae7610efd565b85858585611320565b50505050565b6060610b0182610e3e565b505f610b0b6114cc565b90505f815111610b295760405180602001604052805f815250610b54565b80610b33846114e2565b604051602001610b449291906129ad565b6040516020818303038152906040525b915050919050565b6060600a5f8373ffffffffffffffffffffffffffffffffffffffff1673ffffffffffffffffffffffffffffffffffffffff1681526020019081526020015f205f9054906101000a900460ff16610be7576040517f08c379a0000000000000000000000000000000000000000000000000000000008152600401610bde90612a1a565b60405180910390fd5b60085f60095f8573ffffffffffffffffffffffffffffffffffffffff1673ffffffffffffffffffffffffffffffffffffffff1681526020019081526020015f205481526020019081526020015f208054610c4090612486565b80601f0160208091040260200160405190810160405280929190818152602001828054610c6c90612486565b8015610cb75780601f10610c8e57610100808354040283529160200191610cb7565b820191905f5260205f20905b815481529060010190602001808311610c9a57829003601f168201915b50505050509050919050565b5f60055f8473ffffffffffffffffffffffffffffffffffffffff1673ffffffffffffffffffffffffffffffffffffffff1681526020019081526020015f205f8373ffffffffffffffffffffffffffffffffffffffff1673ffffffffffffffffffffffffffffffffffffffff1681526020019081526020015f205f9054906101000a900460ff16905092915050565b610d59610fe0565b5f73ffffffffffffffffffffffffffffffffffffffff168173ffffffffffffffffffffffffffffffffffffffff1603610dc9575f6040517f1e4fbdf7000000000000000000000000000000000000000000000000000000008152600401610dc09190611f8a565b60405180910390fd5b610dd281611067565b50565b5f7f01ffc9a7000000000000000000000000000000000000000000000000000000007bffffffffffffffffffffffffffffffffffffffffffffffffffffffff1916827bffffffffffffffffffffffffffffffffffffffffffffffffffffffff1916149050919050565b5f5f610e49836115ac565b90505f73ffffffffffffffffffffffffffffffffffffffff168173ffffffffffffffffffffffffffffffffffffffff1603610ebb57826040517f7e273289000000000000000000000000000000000000000000000000000000008152600401610eb29190612109565b60405180910390fd5b80915050919050565b5f60045f8381526020019081526020015f205f9054906101000a900473ffffffffffffffffffffffffffffffffffffffff169050919050565b5f33905090565b610f1183838360016115e5565b505050565b5f5f610f21846115ac565b90505f73ffffffffffffffffffffffffffffffffffffffff168173ffffffffffffffffffffffffffffffffffffffff1614158015610f8b57505f73ffffffffffffffffffffffffffffffffffffffff168573ffffffffffffffffffffffffffffffffffffffff1614155b15610fcb576040517f08c379a0000000000000000000000000000000000000000000000000000000008152600401610fc290612aa8565b60405180910390fd5b610fd68585856117a4565b9150509392505050565b610fe8610efd565b73ffffffffffffffffffffffffffffffffffffffff16611006610758565b73ffffffffffffffffffffffffffffffffffffffff161461106557611029610efd565b6040517f118cdaa700000000000000000000000000000000000000000000000000000000815260040161105c9190611f8a565b60405180910390fd5b565b5f60065f9054906101000a900473ffffffffffffffffffffffffffffffffffffffff1690508160065f6101000a81548173ffffffffffffffffffffffffffffffffffffffff021916908373ffffffffffffffffffffffffffffffffffffffff1602179055508173ffffffffffffffffffffffffffffffffffffffff168173ffffffffffffffffffffffffffffffffffffffff167f8be0079c531659141344cd1fd0a4f28419497f9722a3daafe3b4186f6b6457e060405160405180910390a35050565b5f73ffffffffffffffffffffffffffffffffffffffff168373ffffffffffffffffffffffffffffffffffffffff160361119a575f6040517fa9fbf51f0000000000000000000000000000000000000000000000000000000081526004016111919190611f8a565b60405180910390fd5b5f73ffffffffffffffffffffffffffffffffffffffff168273ffffffffffffffffffffffffffffffffffffffff160361120a57816040517f5b08ba180000000000000000000000000000000000000000000000000000000081526004016112019190611f8a565b60405180910390fd5b8060055f8573ffffffffffffffffffffffffffffffffffffffff1673ffffffffffffffffffffffffffffffffffffffff1681526020019081526020015f205f8473ffffffffffffffffffffffffffffffffffffffff1673ffffffffffffffffffffffffffffffffffffffff1681526020019081526020015f205f6101000a81548160ff0219169083151502179055508173ffffffffffffffffffffffffffffffffffffffff168373ffffffffffffffffffffffffffffffffffffffff167f17307eab39ab6107e8899845ad3d59bd9653f200f220920489ca2b5937696c31836040516112f69190611e44565b60405180910390a3505050565b61131c828260405180602001604052805f8152506119af565b5050565b5f8373ffffffffffffffffffffffffffffffffffffffff163b11156114c5578273ffffffffffffffffffffffffffffffffffffffff1663150b7a02868685856040518563ffffffff1660e01b815260040161137e9493929190612b18565b6020604051808303815f875af19250505080156113b957506040513d601f19601f820116820180604052508101906113b69190612b76565b60015b61143a573d805f81146113e7576040519150601f19603f3d011682016040523d82523d5f602084013e6113ec565b606091505b505f81510361143257836040517f64a0ae920000000000000000000000000000000000000000000000000000000081526004016114299190611f8a565b60405180910390fd5b805160208201fd5b63150b7a0260e01b7bffffffffffffffffffffffffffffffffffffffffffffffffffffffff1916817bffffffffffffffffffffffffffffffffffffffffffffffffffffffff1916146114c357836040517f64a0ae920000000000000000000000000000000000000000000000000000000081526004016114ba9190611f8a565b60405180910390fd5b505b5050505050565b606060405180602001604052805f815250905090565b60605f60016114f0846119d2565b0190505f8167ffffffffffffffff81111561150e5761150d612192565b5b6040519080825280601f01601f1916602001820160405280156115405781602001600182028036833780820191505090505b5090505f82602083010190505b6001156115a1578080600190039150507f3031323334353637383961626364656600000000000000000000000000000000600a86061a8153600a858161159657611595612ba1565b5b0494505f850361154d575b819350505050919050565b5f60025f8381526020019081526020015f205f9054906101000a900473ffffffffffffffffffffffffffffffffffffffff169050919050565b808061161d57505f73ffffffffffffffffffffffffffffffffffffffff168273ffffffffffffffffffffffffffffffffffffffff1614155b1561174f575f61162c84610e3e565b90505f73ffffffffffffffffffffffffffffffffffffffff168373ffffffffffffffffffffffffffffffffffffffff161415801561169657508273ffffffffffffffffffffffffffffffffffffffff168173ffffffffffffffffffffffffffffffffffffffff1614155b80156116a957506116a78184610cc3565b155b156116eb57826040517fa9fbf51f0000000000000000000000000000000000000000000000000000000081526004016116e29190611f8a565b60405180910390fd5b811561174d57838573ffffffffffffffffffffffffffffffffffffffff168273ffffffffffffffffffffffffffffffffffffffff167f8c5be1e5ebec7d5bd14f71427d1e84f3dd0314c0f7b2291e5b200ac8c7c3b92560405160405180910390a45b505b8360045f8581526020019081526020015f205f6101000a81548173ffffffffffffffffffffffffffffffffffffffff021916908373ffffffffffffffffffffffffffffffffffffffff16021790555050505050565b5f5f6117af846115ac565b90505f73ffffffffffffffffffffffffffffffffffffffff168373ffffffffffffffffffffffffffffffffffffffff16146117f0576117ef818486611b23565b5b5f73ffffffffffffffffffffffffffffffffffffffff168173ffffffffffffffffffffffffffffffffffffffff161461187b5761182f5f855f5f6115e5565b600160035f8373ffffffffffffffffffffffffffffffffffffffff1673ffffffffffffffffffffffffffffffffffffffff1681526020019081526020015f205f82825403925050819055505b5f73ffffffffffffffffffffffffffffffffffffffff168573ffffffffffffffffffffffffffffffffffffffff16146118fa57600160035f8773ffffffffffffffffffffffffffffffffffffffff1673ffffffffffffffffffffffffffffffffffffffff1681526020019081526020015f205f82825401925050819055505b8460025f8681526020019081526020015f205f6101000a81548173ffffffffffffffffffffffffffffffffffffffff021916908373ffffffffffffffffffffffffffffffffffffffff160217905550838573ffffffffffffffffffffffffffffffffffffffff168273ffffffffffffffffffffffffffffffffffffffff167fddf252ad1be2c89b69c2b068fc378daa952ba7f163c4a11628f55a4df523b3ef60405160405180910390a4809150509392505050565b6119b98383611be6565b6119cd6119c4610efd565b5f858585611320565b505050565b5f5f5f90507a184f03e93ff9f4daa797ed6e38ed64bf6a1f0100000000000000008310611a2e577a184f03e93ff9f4daa797ed6e38ed64bf6a1f0100000000000000008381611a2457611a23612ba1565b5b0492506040810190505b6d04ee2d6d415b85acef81000000008310611a6b576d04ee2d6d415b85acef81000000008381611a6157611a60612ba1565b5b0492506020810190505b662386f26fc100008310611a9a57662386f26fc100008381611a9057611a8f612ba1565b5b0492506010810190505b6305f5e1008310611ac3576305f5e1008381611ab957611ab8612ba1565b5b0492506008810190505b6127108310611ae8576127108381611ade57611add612ba1565b5b0492506004810190505b60648310611b0b5760648381611b0157611b00612ba1565b5b0492506002810190505b600a8310611b1a576001810190505b80915050919050565b611b2e838383611cd9565b611be1575f73ffffffffffffffffffffffffffffffffffffffff168373ffffffffffffffffffffffffffffffffffffffff1603611ba257806040517f7e273289000000000000000000000000000000000000000000000000000000008152600401611b999190612109565b60405180910390fd5b81816040517f177e802f000000000000000000000000000000000000000000000000000000008152600401611bd8929190612bce565b60405180910390fd5b505050565b5f73ffffffffffffffffffffffffffffffffffffffff168273ffffffffffffffffffffffffffffffffffffffff1603611c56575f6040517f64a0ae92000000000000000000000000000000000000000000000000000000008152600401611c4d9190611f8a565b60405180910390fd5b5f611c6283835f610f16565b90505f73ffffffffffffffffffffffffffffffffffffffff168173ffffffffffffffffffffffffffffffffffffffff1614611cd4575f6040517f73c6ac6e000000000000000000000000000000000000000000000000000000008152600401611ccb9190611f8a565b60405180910390fd5b505050565b5f5f73ffffffffffffffffffffffffffffffffffffffff168373ffffffffffffffffffffffffffffffffffffffff1614158015611d9057508273ffffffffffffffffffffffffffffffffffffffff168473ffffffffffffffffffffffffffffffffffffffff161480611d515750611d508484610cc3565b5b80611d8f57508273ffffffffffffffffffffffffffffffffffffffff16611d7783610ec4565b73ffffffffffffffffffffffffffffffffffffffff16145b5b90509392505050565b5f604051905090565b5f5ffd5b5f5ffd5b5f7fffffffff0000000000000000000000000000000000000000000000000000000082169050919050565b611dde81611daa565b8114611de8575f5ffd5b50565b5f81359050611df981611dd5565b92915050565b5f60208284031215611e1457611e13611da2565b5b5f611e2184828501611deb565b91505092915050565b5f8115159050919050565b611e3e81611e2a565b82525050565b5f602082019050611e575f830184611e35565b92915050565b5f81519050919050565b5f82825260208201905092915050565b8281835e5f83830152505050565b5f601f19601f8301169050919050565b5f611e9f82611e5d565b611ea98185611e67565b9350611eb9818560208601611e77565b611ec281611e85565b840191505092915050565b5f6020820190508181035f830152611ee58184611e95565b905092915050565b5f819050919050565b611eff81611eed565b8114611f09575f5ffd5b50565b5f81359050611f1a81611ef6565b92915050565b5f60208284031215611f3557611f34611da2565b5b5f611f4284828501611f0c565b91505092915050565b5f73ffffffffffffffffffffffffffffffffffffffff82169050919050565b5f611f7482611f4b565b9050919050565b611f8481611f6a565b82525050565b5f602082019050611f9d5f830184611f7b565b92915050565b611fac81611f6a565b8114611fb6575f5ffd5b50565b5f81359050611fc781611fa3565b92915050565b5f5f60408385031215611fe357611fe2611da2565b5b5f611ff085828601611fb9565b925050602061200185828601611f0c565b9150509250929050565b5f5f5f6060848603121561202257612021611da2565b5b5f61202f86828701611fb9565b935050602061204086828701611fb9565b925050604061205186828701611f0c565b9150509250925092565b5f819050919050565b5f61207e61207961207484611f4b565b61205b565b611f4b565b9050919050565b5f61208f82612064565b9050919050565b5f6120a082612085565b9050919050565b6120b081612096565b82525050565b5f6020820190506120c95f8301846120a7565b92915050565b5f602082840312156120e4576120e3611da2565b5b5f6120f184828501611fb9565b91505092915050565b61210381611eed565b82525050565b5f60208201905061211c5f8301846120fa565b92915050565b61212b81611e2a565b8114612135575f5ffd5b50565b5f8135905061214681612122565b92915050565b5f5f6040838503121561216257612161611da2565b5b5f61216f85828601611fb9565b925050602061218085828601612138565b9150509250929050565b5f5ffd5b5f5ffd5b7f4e487b71000000000000000000000000000000000000000000000000000000005f52604160045260245ffd5b6121c882611e85565b810181811067ffffffffffffffff821117156121e7576121e6612192565b5b80604052505050565b5f6121f9611d99565b905061220582826121bf565b919050565b5f67ffffffffffffffff82111561222457612223612192565b5b61222d82611e85565b9050602081019050919050565b828183375f83830152505050565b5f61225a6122558461220a565b6121f0565b9050828152602081018484840111156122765761227561218e565b5b61228184828561223a565b509392505050565b5f82601f83011261229d5761229c61218a565b5b81356122ad848260208601612248565b91505092915050565b5f602082840312156122cb576122ca611da2565b5b5f82013567ffffffffffffffff8111156122e8576122e7611da6565b5b6122f484828501612289565b91505092915050565b5f67ffffffffffffffff82111561231757612316612192565b5b61232082611e85565b9050602081019050919050565b5f61233f61233a846122fd565b6121f0565b90508281526020810184848401111561235b5761235a61218e565b5b61236684828561223a565b509392505050565b5f82601f8301126123825761238161218a565b5b813561239284826020860161232d565b91505092915050565b5f5f5f5f608085870312156123b3576123b2611da2565b5b5f6123c087828801611fb9565b94505060206123d187828801611fb9565b93505060406123e287828801611f0c565b925050606085013567ffffffffffffffff81111561240357612402611da6565b5b61240f8782880161236e565b91505092959194509250565b5f5f6040838503121561243157612430611da2565b5b5f61243e85828601611fb9565b925050602061244f85828601611fb9565b9150509250929050565b7f4e487b71000000000000000000000000000000000000000000000000000000005f52602260045260245ffd5b5f600282049050600182168061249d57607f821691505b6020821081036124b0576124af612459565b5b50919050565b5f6060820190506124c95f830186611f7b565b6124d660208301856120fa565b6124e36040830184611f7b565b949350505050565b7f50726f66696c6520616c726561647920657869737473000000000000000000005f82015250565b5f61251f601683611e67565b915061252a826124eb565b602082019050919050565b5f6020820190508181035f83015261254c81612513565b9050919050565b5f8151905061256181612122565b92915050565b5f6020828403121561257c5761257b611da2565b5b5f61258984828501612553565b91505092915050565b7f4964656e7469747920507265636f6d70696c65206e6f7420666f756e64206f725f8201527f206661696c656400000000000000000000000000000000000000000000000000602082015250565b5f6125ec602783611e67565b91506125f782612592565b604082019050919050565b5f6020820190508181035f830152612619816125e0565b9050919050565b7f55736572206e6f742076657269666965642061732068756d616e0000000000005f82015250565b5f612654601a83611e67565b915061265f82612620565b602082019050919050565b5f6020820190508181035f83015261268181612648565b9050919050565b7f4e487b71000000000000000000000000000000000000000000000000000000005f52601160045260245ffd5b5f6126bf82611eed565b91507fffffffffffffffffffffffffffffffffffffffffffffffffffffffffffffffff82036126f1576126f0612688565b5b600182019050919050565b5f819050815f5260205f209050919050565b5f6020601f8301049050919050565b5f82821b905092915050565b5f600883026127587fffffffffffffffffffffffffffffffffffffffffffffffffffffffffffffffff8261271d565b612762868361271d565b95508019841693508086168417925050509392505050565b5f61279461278f61278a84611eed565b61205b565b611eed565b9050919050565b5f819050919050565b6127ad8361277a565b6127c16127b98261279b565b848454612729565b825550505050565b5f5f905090565b6127d86127c9565b6127e38184846127a4565b505050565b5f5b82811015612809576127fe5f8284016127d0565b6001810190506127ea565b505050565b601f82111561285c578282111561285b57612828816126fc565b6128318361270e565b61283a8561270e565b6020861015612847575f90505b808301612856828403826127e8565b505050505b5b505050565b5f82821c905092915050565b5f61287c5f1984600802612861565b1980831691505092915050565b5f612894838361286d565b9150826002028217905092915050565b6128ad82611e5d565b67ffffffffffffffff8111156128c6576128c5612192565b5b6128d08254612486565b6128db82828561280e565b5f60209050601f83116001811461290c575f84156128fa578287015190505b6129048582612889565b86555061296b565b601f19841661291a866126fc565b5f5b828110156129415784890151825560018201915060208501945060208101905061291c565b8683101561295e578489015161295a601f89168261286d565b8355505b6001600288020188555050505b505050505050565b5f81905092915050565b5f61298782611e5d565b6129918185612973565b93506129a1818560208601611e77565b80840191505092915050565b5f6129b8828561297d565b91506129c4828461297d565b91508190509392505050565b7f5573657220686173206e6f2070726f66696c65000000000000000000000000005f82015250565b5f612a04601383611e67565b9150612a0f826129d0565b602082019050919050565b5f6020820190508181035f830152612a31816129f8565b9050919050565b7f5342543a2050726f66696c657320617265206e6f6e2d7472616e7366657261625f8201527f6c65000000000000000000000000000000000000000000000000000000000000602082015250565b5f612a92602283611e67565b9150612a9d82612a38565b604082019050919050565b5f6020820190508181035f830152612abf81612a86565b9050919050565b5f81519050919050565b5f82825260208201905092915050565b5f612aea82612ac6565b612af48185612ad0565b9350612b04818560208601611e77565b612b0d81611e85565b840191505092915050565b5f608082019050612b2b5f830187611f7b565b612b386020830186611f7b565b612b4560408301856120fa565b8181036060830152612b578184612ae0565b905095945050505050565b5f81519050612b7081611dd5565b92915050565b5f60208284031215612b8b57612b8a611da2565b5b5f612b9884828501612b62565b91505092915050565b7f4e487b71000000000000000000000000000000000000000000000000000000005f52601260045260245ffd5b5f604082019050612be15f830185611f7b565b612bee60208301846120fa565b939250505056fea264697066735822122069946611e96666754520d920038770b782e2dd444720afc1217e2a512dfb439264736f6c63430008220033","linkReferences":{}},"methodIdentifiers":{"IDENTITY_PRECOMPILE()":"532e5ae1","approve(address,uint256)":"095ea7b3","balanceOf(address)":"70a08231","getApproved(uint256)":"081812fc","getProfileCID(address)":"de8b05be","isApprovedForAll(address,address)":"e985e9c5","mintProfile(string)":"ad55601d","name()":"06fdde03","owner()":"8da5cb5b","ownerOf(uint256)":"6352211e","renounceOwnership()":"715018a6","safeTransferFrom(address,address,uint256)":"42842e0e","safeTransferFrom(address,address,uint256,bytes)":"b88d4fde","setApprovalForAll(address,bool)":"a22cb465","supportsInterface(bytes4)":"01ffc9a7","symbol()":"95d89b41","tokenURI(uint256)":"c87b56dd","transferFrom(address,address,uint256)":"23b872dd","transferOwnership(address)":"f2fde38b"},"id":36}