{
  "_format": "hh-sol-artifact-1",
  "contractName": "Token42Profile",
  "sourceName": "contracts/contracts/Token42Profile.sol",
  "abi": [
    {
      "inputs": [],
      "stateMutability": "nonpayable",
      "type": "constructor"
    },
    {
      "anonymous": false,
      "inputs": [
        {
          "indexed": true,
          "internalType": "address",
          "name": "user",
          "type": "address"
        },
        {
          "indexed": true,
          "internalType": "uint256",
          "name": "tokenId",
          "type": "uint256"
        },
        {
          "indexed": false,
          "internalType": "string",
          "name": "cid",
          "type": "string"
        }
      ],
      "name": "ProfileMinted",
      "type": "event"
    },
    {
      "anonymous": false,
      "inputs": [
        {
          "indexed": true,
          "internalType": "address",
          "name": "from",
          "type": "address"
        },
        {
          "indexed": true,
          "internalType": "address",
          "name": "to",
          "type": "address"
        },
        {
          "indexed": true,
          "internalType": "uint256",
          "name": "tokenId",
          "type": "uint256"
        }
      ],
      "name": "Transfer",
      "type": "event"
    },
    {
      "inputs": [],
      "name": "IDENTITY_PRECOMPILE",
      "outputs": [
        {
          "internalType": "contract IIdentity",
          "name": "",
          "type": "address"
        }
      ],
      "stateMutability": "view",
      "type": "function"
    },
    {
      "inputs": [
        {
          "internalType": "address",
          "name": "account",
          "type": "address"
        }
      ],
      "name": "balanceOf",
      "outputs": [
        {
          "internalType": "uint256",
          "name": "",
          "type": "uint256"
        }
      ],
      "stateMutability": "view",
      "type": "function"
    },
    {
      "inputs": [
        {
          "internalType": "address",
          "name": "user",
          "type": "address"
        }
      ],
      "name": "getProfileCID",
      "outputs": [
        {
          "internalType": "string",
          "name": "",
          "type": "string"
        }
      ],
      "stateMutability": "view",
      "type": "function"
    },
    {
      "inputs": [
        {
          "internalType": "address",
          "name": "user",
          "type": "address"
        }
      ],
      "name": "hasProfile",
      "outputs": [
        {
          "internalType": "bool",
          "name": "",
          "type": "bool"
        }
      ],
      "stateMutability": "view",
      "type": "function"
    },
    {
      "inputs": [
        {
          "internalType": "string",
          "name": "cid",
          "type": "string"
        }
      ],
      "name": "mintProfile",
      "outputs": [],
      "stateMutability": "nonpayable",
      "type": "function"
    },
    {
      "inputs": [],
      "name": "name",
      "outputs": [
        {
          "internalType": "string",
          "name": "",
          "type": "string"
        }
      ],
      "stateMutability": "view",
      "type": "function"
    },
    {
      "inputs": [],
      "name": "owner",
      "outputs": [
        {
          "internalType": "address",
          "name": "",
          "type": "address"
        }
      ],
      "stateMutability": "view",
      "type": "function"
    },
    {
      "inputs": [
        {
          "internalType": "uint256",
          "name": "tokenId",
          "type": "uint256"
        }
      ],
      "name": "ownerOf",
      "outputs": [
        {
          "internalType": "address",
          "name": "",
          "type": "address"
        }
      ],
      "stateMutability": "view",
      "type": "function"
    },
    {
      "inputs": [],
      "name": "symbol",
      "outputs": [
        {
          "internalType": "string",
          "name": "",
          "type": "string"
        }
      ],
      "stateMutability": "view",
      "type": "function"
    },
    {
      "inputs": [
        {
          "internalType": "address",
          "name": "",
          "type": "address"
        },
        {
          "internalType": "address",
          "name": "",
          "type": "address"
        },
        {
          "internalType": "uint256",
          "name": "",
          "type": "uint256"
        }
      ],
      "name": "transferFrom",
      "outputs": [],
      "stateMutability": "pure",
      "type": "function"
    }
  ],
  "bytecode": "0x60806040526040518060400160405280600f81526020017f546f6b656e34322050726f66696c650000000000000000000000000000000000815250600090816100489190610331565b506040518060400160405280600481526020017f54343250000000000000000000000000000000000000000000000000000000008152506001908161008d9190610331565b5034801561009a57600080fd5b5033600860006101000a81548173ffffffffffffffffffffffffffffffffffffffff021916908373ffffffffffffffffffffffffffffffffffffffff160217905550610403565b600081519050919050565b7f4e487b7100000000000000000000000000000000000000000000000000000000600052604160045260246000fd5b7f4e487b7100000000000000000000000000000000000000000000000000000000600052602260045260246000fd5b6000600282049050600182168061016257607f821691505b6020821081036101755761017461011b565b5b50919050565b60008190508160005260206000209050919050565b60006020601f8301049050919050565b600082821b905092915050565b6000600883026101dd7fffffffffffffffffffffffffffffffffffffffffffffffffffffffffffffffff826101a0565b6101e786836101a0565b95508019841693508086168417925050509392505050565b6000819050919050565b6000819050919050565b600061022e610229610224846101ff565b610209565b6101ff565b9050919050565b6000819050919050565b61024883610213565b61025c61025482610235565b8484546101ad565b825550505050565b600090565b610271610264565b61027c81848461023f565b505050565b5b818110156102a057610295600082610269565b600181019050610282565b5050565b601f8211156102e5576102b68161017b565b6102bf84610190565b810160208510156102ce578190505b6102e26102da85610190565b830182610281565b50505b505050565b600082821c905092915050565b6000610308600019846008026102ea565b1980831691505092915050565b600061032183836102f7565b9150826002028217905092915050565b61033a826100e1565b67ffffffffffffffff811115610353576103526100ec565b5b61035d825461014a565b6103688282856102a4565b600060209050601f83116001811461039b5760008415610389578287015190505b6103938582610315565b8655506103fb565b601f1984166103a98661017b565b60005b828110156103d1578489015182556001820191506020850194506020810190506103ac565b868310156103ee57848901516103ea601f8916826102f7565b8355505b6001600288020188555050505b505050505050565b61152d806104126000396000f3fe608060405234801561001057600080fd5b506004361061009e5760003560e01c80638da5cb5b116100665780638da5cb5b1461015b57806395d89b4114610179578063a787c80b14610197578063ad55601d146101c7578063de8b05be146101e35761009e565b806306fdde03146100a357806323b872dd146100c1578063532e5ae1146100dd5780636352211e146100fb57806370a082311461012b575b600080fd5b6100ab610213565b6040516100b89190610a86565b60405180910390f35b6100db60048036038101906100d69190610b50565b6102a1565b005b6100e56102dc565b6040516100f29190610c02565b60405180910390f35b61011560048036038101906101109190610c1d565b6102e2565b6040516101229190610c59565b60405180910390f35b61014560048036038101906101409190610c74565b610393565b6040516101529190610cb0565b60405180910390f35b6101636103dc565b6040516101709190610c59565b60405180910390f35b610181610402565b60405161018e9190610a86565b60405180910390f35b6101b160048036038101906101ac9190610c74565b610490565b6040516101be9190610ce6565b60405180910390f35b6101e160048036038101906101dc9190610e36565b6104e6565b005b6101fd60048036038101906101f89190610c74565b610886565b60405161020a9190610a86565b60405180910390f35b6000805461022090610eae565b80601f016020809104026020016040519081016040528092919081815260200182805461024c90610eae565b80156102995780601f1061026e57610100808354040283529160200191610299565b820191906000526020600020905b81548152906001019060200180831161027c57829003601f168201915b505050505081565b6040517f08c379a00000000000000000000000000000000000000000000000000000000081526004016102d390610f51565b60405180910390fd5b61090181565b6000806003600084815260200190815260200160002060009054906101000a900473ffffffffffffffffffffffffffffffffffffffff169050600073ffffffffffffffffffffffffffffffffffffffff168173ffffffffffffffffffffffffffffffffffffffff160361038a576040517f08c379a000000000000000000000000000000000000000000000000000000000815260040161038190610fbd565b60405180910390fd5b80915050919050565b6000600460008373ffffffffffffffffffffffffffffffffffffffff1673ffffffffffffffffffffffffffffffffffffffff168152602001908152602001600020549050919050565b600860009054906101000a900473ffffffffffffffffffffffffffffffffffffffff1681565b6001805461040f90610eae565b80601f016020809104026020016040519081016040528092919081815260200182805461043b90610eae565b80156104885780601f1061045d57610100808354040283529160200191610488565b820191906000526020600020905b81548152906001019060200180831161046b57829003601f168201915b505050505081565b6000600760008373ffffffffffffffffffffffffffffffffffffffff1673ffffffffffffffffffffffffffffffffffffffff16815260200190815260200160002060009054906101000a900460ff169050919050565b600760003373ffffffffffffffffffffffffffffffffffffffff1673ffffffffffffffffffffffffffffffffffffffff16815260200190815260200160002060009054906101000a900460ff1615610573576040517f08c379a000000000000000000000000000000000000000000000000000000000815260040161056a90611029565b60405180910390fd5b61090173ffffffffffffffffffffffffffffffffffffffff1663eeb339f8336040518263ffffffff1660e01b81526004016105ae9190610c59565b602060405180830381865afa9250505080156105e857506040513d601f19601f820116820180604052508101906105e59190611075565b60015b610627576040517f08c379a000000000000000000000000000000000000000000000000000000000815260040161061e90611114565b60405180910390fd5b80610667576040517f08c379a000000000000000000000000000000000000000000000000000000000815260040161065e90611180565b60405180910390fd5b5060006002600081548092919061067d906111cf565b919050559050336003600083815260200190815260200160002060006101000a81548173ffffffffffffffffffffffffffffffffffffffff021916908373ffffffffffffffffffffffffffffffffffffffff1602179055506001600460003373ffffffffffffffffffffffffffffffffffffffff1673ffffffffffffffffffffffffffffffffffffffff168152602001908152602001600020819055508160056000838152602001908152602001600020908161073a91906113b9565b5080600660003373ffffffffffffffffffffffffffffffffffffffff1673ffffffffffffffffffffffffffffffffffffffff168152602001908152602001600020819055506001600760003373ffffffffffffffffffffffffffffffffffffffff1673ffffffffffffffffffffffffffffffffffffffff16815260200190815260200160002060006101000a81548160ff021916908315150217905550803373ffffffffffffffffffffffffffffffffffffffff16600073ffffffffffffffffffffffffffffffffffffffff167fddf252ad1be2c89b69c2b068fc378daa952ba7f163c4a11628f55a4df523b3ef60405160405180910390a4803373ffffffffffffffffffffffffffffffffffffffff167f798b0091a4723034912e9709e44d3648844a13048313ae4f9590c21bfc56586b8460405161087a9190610a86565b60405180910390a35050565b6060600760008373ffffffffffffffffffffffffffffffffffffffff1673ffffffffffffffffffffffffffffffffffffffff16815260200190815260200160002060009054906101000a900460ff16610914576040517f08c379a000000000000000000000000000000000000000000000000000000000815260040161090b906114d7565b60405180910390fd5b60056000600660008573ffffffffffffffffffffffffffffffffffffffff1673ffffffffffffffffffffffffffffffffffffffff168152602001908152602001600020548152602001908152602001600020805461097190610eae565b80601f016020809104026020016040519081016040528092919081815260200182805461099d90610eae565b80156109ea5780601f106109bf576101008083540402835291602001916109ea565b820191906000526020600020905b8154815290600101906020018083116109cd57829003601f168201915b50505050509050919050565b600081519050919050565b600082825260208201905092915050565b60005b83811015610a30578082015181840152602081019050610a15565b60008484015250505050565b6000601f19601f8301169050919050565b6000610a58826109f6565b610a628185610a01565b9350610a72818560208601610a12565b610a7b81610a3c565b840191505092915050565b60006020820190508181036000830152610aa08184610a4d565b905092915050565b6000604051905090565b600080fd5b600080fd5b600073ffffffffffffffffffffffffffffffffffffffff82169050919050565b6000610ae782610abc565b9050919050565b610af781610adc565b8114610b0257600080fd5b50565b600081359050610b1481610aee565b92915050565b6000819050919050565b610b2d81610b1a565b8114610b3857600080fd5b50565b600081359050610b4a81610b24565b92915050565b600080600060608486031215610b6957610b68610ab2565b5b6000610b7786828701610b05565b9350506020610b8886828701610b05565b9250506040610b9986828701610b3b565b9150509250925092565b6000819050919050565b6000610bc8610bc3610bbe84610abc565b610ba3565b610abc565b9050919050565b6000610bda82610bad565b9050919050565b6000610bec82610bcf565b9050919050565b610bfc81610be1565b82525050565b6000602082019050610c176000830184610bf3565b92915050565b600060208284031215610c3357610c32610ab2565b5b6000610c4184828501610b3b565b91505092915050565b610c5381610adc565b82525050565b6000602082019050610c6e6000830184610c4a565b92915050565b600060208284031215610c8a57610c89610ab2565b5b6000610c9884828501610b05565b91505092915050565b610caa81610b1a565b82525050565b6000602082019050610cc56000830184610ca1565b92915050565b60008115159050919050565b610ce081610ccb565b82525050565b6000602082019050610cfb6000830184610cd7565b92915050565b600080fd5b600080fd5b7f4e487b7100000000000000000000000000000000000000000000000000000000600052604160045260246000fd5b610d4382610a3c565b810181811067ffffffffffffffff82111715610d6257610d61610d0b565b5b80604052505050565b6000610d75610aa8565b9050610d818282610d3a565b919050565b600067ffffffffffffffff821115610da157610da0610d0b565b5b610daa82610a3c565b9050602081019050919050565b82818337600083830152505050565b6000610dd9610dd484610d86565b610d6b565b905082815260208101848484011115610df557610df4610d06565b5b610e00848285610db7565b509392505050565b600082601f830112610e1d57610e1c610d01565b5b8135610e2d848260208601610dc6565b91505092915050565b600060208284031215610e4c57610e4b610ab2565b5b600082013567ffffffffffffffff811115610e6a57610e69610ab7565b5b610e7684828501610e08565b91505092915050565b7f4e487b7100000000000000000000000000000000000000000000000000000000600052602260045260246000fd5b60006002820490506001821680610ec657607f821691505b602082108103610ed957610ed8610e7f565b5b50919050565b7f5342543a2050726f66696c657320617265206e6f6e2d7472616e73666572616260008201527f6c65000000000000000000000000000000000000000000000000000000000000602082015250565b6000610f3b602283610a01565b9150610f4682610edf565b604082019050919050565b60006020820190508181036000830152610f6a81610f2e565b9050919050565b7f546f6b656e20646f6573206e6f74206578697374000000000000000000000000600082015250565b6000610fa7601483610a01565b9150610fb282610f71565b602082019050919050565b60006020820190508181036000830152610fd681610f9a565b9050919050565b7f50726f66696c6520616c72656164792065786973747300000000000000000000600082015250565b6000611013601683610a01565b915061101e82610fdd565b602082019050919050565b6000602082019050818103600083015261104281611006565b9050919050565b61105281610ccb565b811461105d57600080fd5b50565b60008151905061106f81611049565b92915050565b60006020828403121561108b5761108a610ab2565b5b600061109984828501611060565b91505092915050565b7f4964656e7469747920507265636f6d70696c65206e6f7420666f756e64206f7260008201527f206661696c656400000000000000000000000000000000000000000000000000602082015250565b60006110fe602783610a01565b9150611109826110a2565b604082019050919050565b6000602082019050818103600083015261112d816110f1565b9050919050565b7f55736572206e6f742076657269666965642061732068756d616e000000000000600082015250565b600061116a601a83610a01565b915061117582611134565b602082019050919050565b600060208201905081810360008301526111998161115d565b9050919050565b7f4e487b7100000000000000000000000000000000000000000000000000000000600052601160045260246000fd5b60006111da82610b1a565b91507fffffffffffffffffffffffffffffffffffffffffffffffffffffffffffffffff820361120c5761120b6111a0565b5b600182019050919050565b60008190508160005260206000209050919050565b60006020601f8301049050919050565b600082821b905092915050565b6000600883026112797fffffffffffffffffffffffffffffffffffffffffffffffffffffffffffffffff8261123c565b611283868361123c565b95508019841693508086168417925050509392505050565b60006112b66112b16112ac84610b1a565b610ba3565b610b1a565b9050919050565b6000819050919050565b6112d08361129b565b6112e46112dc826112bd565b848454611249565b825550505050565b600090565b6112f96112ec565b6113048184846112c7565b505050565b5b818110156113285761131d6000826112f1565b60018101905061130a565b5050565b601f82111561136d5761133e81611217565b6113478461122c565b81016020851015611356578190505b61136a6113628561122c565b830182611309565b50505b505050565b600082821c905092915050565b600061139060001984600802611372565b1980831691505092915050565b60006113a9838361137f565b9150826002028217905092915050565b6113c2826109f6565b67ffffffffffffffff8111156113db576113da610d0b565b5b6113e58254610eae565b6113f082828561132c565b600060209050601f8311600181146114235760008415611411578287015190505b61141b858261139d565b865550611483565b601f19841661143186611217565b60005b8281101561145957848901518255600182019150602085019450602081019050611434565b868310156114765784890151611472601f89168261137f565b8355505b6001600288020188555050505b505050505050565b7f5573657220686173206e6f2070726f66696c6500000000000000000000000000600082015250565b60006114c1601383610a01565b91506114cc8261148b565b602082019050919050565b600060208201905081810360008301526114f0816114b4565b905091905056fea2646970667358221220daca1e7366febf35204ea920d59157248cc679024e2a0fb69a029f3e4d86c3bf64736f6c634300081c0033",
  "linkReferences": {},
  "deployedLinkReferences": {}
}