{"abi":[{"type":"constructor","inputs":[{"name":"_rUSD","type":"address","internalType":"address"},{"name":"_aiAgent","type":"address","internalType":"address"}],"stateMutability":"nonpayable"},{"type":"function","name":"aiAgent","inputs":[],"outputs":[{"name":"","type":"address","internalType":"address"}],"stateMutability":"view"},{"type":"function","name":"claimStake","inputs":[{"name":"sender","type":"address","internalType":"address"}],"outputs":[],"stateMutability":"nonpayable"},{"type":"function","name":"matches","inputs":[{"name":"","type":"bytes32","internalType":"bytes32"}],"outputs":[{"name":"sender","type":"address","internalType":"address"},{"name":"recipient","type":"address","internalType":"address"},{"name":"stake","type":"uint256","internalType":"uint256"},{"name":"active","type":"bool","internalType":"bool"}],"stateMutability":"view"},{"type":"function","name":"owner","inputs":[],"outputs":[{"name":"","type":"address","internalType":"address"}],"stateMutability":"view"},{"type":"function","name":"rUSD","inputs":[],"outputs":[{"name":"","type":"address","internalType":"contract IERC20"}],"stateMutability":"view"},{"type":"function","name":"renounceOwnership","inputs":[],"outputs":[],"stateMutability":"nonpayable"},{"type":"function","name":"setAiAgent","inputs":[{"name":"_aiAgent","type":"address","internalType":"address"}],"outputs":[],"stateMutability":"nonpayable"},{"type":"function","name":"slashStake","inputs":[{"name":"sender","type":"address","internalType":"address"},{"name":"recipient","type":"address","internalType":"address"}],"outputs":[],"stateMutability":"nonpayable"},{"type":"function","name":"stakeAmount","inputs":[],"outputs":[{"name":"","type":"uint256","internalType":"uint256"}],"stateMutability":"view"},{"type":"function","name":"stakeForMessage","inputs":[{"name":"recipient","type":"address","internalType":"address"},{"name":"matchScore","type":"uint256","internalType":"uint256"},{"name":"signature","type":"bytes","internalType":"bytes"}],"outputs":[],"stateMutability":"nonpayable"},{"type":"function","name":"transferOwnership","inputs":[{"name":"newOwner","type":"address","internalType":"address"}],"outputs":[],"stateMutability":"nonpayable"},{"type":"event","name":"MessageClaimed","inputs":[{"name":"recipient","type":"address","indexed":true,"internalType":"address"},{"name":"sender","type":"address","indexed":true,"internalType":"address"},{"name":"amount","type":"uint256","indexed":false,"internalType":"uint256"}],"anonymous":false},{"type":"event","name":"MessageStaked","inputs":[{"name":"sender","type":"address","indexed":true,"internalType":"address"},{"name":"recipient","type":"address","indexed":true,"internalType":"address"},{"name":"amount","type":"uint256","indexed":false,"internalType":"uint256"}],"anonymous":false},{"type":"event","name":"OwnershipTransferred","inputs":[{"name":"previousOwner","type":"address","indexed":true,"internalType":"address"},{"name":"newOwner","type":"address","indexed":true,"internalType":"address"}],"anonymous":false},{"type":"event","name":"StakeSlashed","inputs":[{"name":"sender","type":"address","indexed":true,"internalType":"address"},{"name":"reviewer","type":"address","indexed":true,"internalType":"address"},{"name":"amount","type":"uint256","indexed":false,"internalType":"uint256"}],"anonymous":false},{"type":"error","name":"ECDSAInvalidSignature","inputs":[]},{"type":"error","name":"ECDSAInvalidSignatureLength","inputs":[{"name":"length","type":"uint256","internalType":"uint256"}]},{"type":"error","name":"ECDSAInvalidSignatureS","inputs":[{"name":"s","type":"bytes32","internalType":"bytes32"}]},{"type":"error","name":"OwnableInvalidOwner","inputs":[{"name":"owner","type":"address","internalType":"address"}]},{"type":"error","name":"OwnableUnauthorizedAccount","inputs":[{"name":"account","type":"address","internalType":"address"}]}],"bytecode":{"object":"0x60a0604052670de0b6b3a764000060025534801561001b575f5ffd5b50604051611d6c380380611d6c833981810160405281019061003d9190610258565b335f73ffffffffffffffffffffffffffffffffffffffff168173ffffffffffffffffffffffffffffffffffffffff16036100ae575f6040517f1e4fbdf70000000000000000000000000000000000000000000000000000000081526004016100a591906102a5565b60405180910390fd5b6100bd8161013960201b60201c565b508173ffffffffffffffffffffffffffffffffffffffff1660808173ffffffffffffffffffffffffffffffffffffffff16815250508060015f6101000a81548173ffffffffffffffffffffffffffffffffffffffff021916908373ffffffffffffffffffffffffffffffffffffffff16021790555050506102be565b5f5f5f9054906101000a900473ffffffffffffffffffffffffffffffffffffffff169050815f5f6101000a81548173ffffffffffffffffffffffffffffffffffffffff021916908373ffffffffffffffffffffffffffffffffffffffff1602179055508173ffffffffffffffffffffffffffffffffffffffff168173ffffffffffffffffffffffffffffffffffffffff167f8be0079c531659141344cd1fd0a4f28419497f9722a3daafe3b4186f6b6457e060405160405180910390a35050565b5f5ffd5b5f73ffffffffffffffffffffffffffffffffffffffff82169050919050565b5f610227826101fe565b9050919050565b6102378161021d565b8114610241575f5ffd5b50565b5f815190506102528161022e565b92915050565b5f5f6040838503121561026e5761026d6101fa565b5b5f61027b85828601610244565b925050602061028c85828601610244565b9150509250929050565b61029f8161021d565b82525050565b5f6020820190506102b85f830184610296565b92915050565b608051611a816102eb5f395f8181610328015281816105be015281816108aa0152610bd90152611a815ff3fe608060405234801561000f575f5ffd5b50600436106100a7575f3560e01c80639c5408d61161006f5780639c5408d6146101295780639fe9ada314610145578063a6d5b73214610178578063bb2ea88114610196578063f2fde38b146101b4578063f68f2566146101d0576100a7565b806357ef63cc146100ab57806360c7dc47146100c757806361fdd7df146100e5578063715018a6146101015780638da5cb5b1461010b575b5f5ffd5b6100c560048036038101906100c09190611176565b6101ec565b005b6100cf61047a565b6040516100dc91906111cc565b60405180910390f35b6100ff60048036038101906100fa91906111e5565b610480565b005b610109610708565b005b61011361071b565b604051610120919061121f565b60405180910390f35b610143600480360381019061013e91906112c3565b610742565b005b61015f600480360381019061015a9190611367565b610b3c565b60405161016f94939291906113ac565b60405180910390f35b610180610bb2565b60405161018d919061121f565b60405180910390f35b61019e610bd7565b6040516101ab919061144a565b60405180910390f35b6101ce60048036038101906101c991906111e5565b610bfb565b005b6101ea60048036038101906101e591906111e5565b610c7f565b005b60015f9054906101000a900473ffffffffffffffffffffffffffffffffffffffff1673ffffffffffffffffffffffffffffffffffffffff163373ffffffffffffffffffffffffffffffffffffffff161461027b576040517f08c379a0000000000000000000000000000000000000000000000000000000008152600401610272906114bd565b60405180910390fd5b5f828260405160200161028f929190611520565b6040516020818303038152906040528051906020012090505f60035f8381526020019081526020015f209050806003015f9054906101000a900460ff1661030b576040517f08c379a000000000000000000000000000000000000000000000000000000000815260040161030290611595565b60405180910390fd5b5f816003015f6101000a81548160ff0219169083151502179055507f000000000000000000000000000000000000000000000000000000000000000073ffffffffffffffffffffffffffffffffffffffff1663a9059cbb61036a61071b565b83600201546040518363ffffffff1660e01b815260040161038c9291906115b3565b6020604051808303815f875af11580156103a8573d5f5f3e3d5ffd5b505050506040513d601f19601f820116820180604052508101906103cc9190611604565b61040b576040517f08c379a000000000000000000000000000000000000000000000000000000000815260040161040290611679565b60405180910390fd5b3373ffffffffffffffffffffffffffffffffffffffff168473ffffffffffffffffffffffffffffffffffffffff167f4093288bc95bfed35a9c3ea0db07d8c6cbd9722cdf769732ee5d735d61c3cf2b836002015460405161046c91906111cc565b60405180910390a350505050565b60025481565b5f8133604051602001610494929190611520565b6040516020818303038152906040528051906020012090505f60035f8381526020019081526020015f209050806003015f9054906101000a900460ff16610510576040517f08c379a0000000000000000000000000000000000000000000000000000000008152600401610507906116e1565b60405180910390fd5b3373ffffffffffffffffffffffffffffffffffffffff16816001015f9054906101000a900473ffffffffffffffffffffffffffffffffffffffff1673ffffffffffffffffffffffffffffffffffffffff16146105a1576040517f08c379a000000000000000000000000000000000000000000000000000000000815260040161059890611749565b60405180910390fd5b5f816003015f6101000a81548160ff0219169083151502179055507f000000000000000000000000000000000000000000000000000000000000000073ffffffffffffffffffffffffffffffffffffffff1663a9059cbb3383600201546040518363ffffffff1660e01b815260040161061b9291906115b3565b6020604051808303815f875af1158015610637573d5f5f3e3d5ffd5b505050506040513d601f19601f8201168201806040525081019061065b9190611604565b61069a576040517f08c379a0000000000000000000000000000000000000000000000000000000008152600401610691906117b1565b60405180910390fd5b8273ffffffffffffffffffffffffffffffffffffffff163373ffffffffffffffffffffffffffffffffffffffff167fa22cc0f2ac679a9874ce19d756f0437bf07014685f7fa5ef3f2c687555b21e9583600201546040516106fb91906111cc565b60405180910390a3505050565b610710610cca565b6107195f610d51565b565b5f5f5f9054906101000a900473ffffffffffffffffffffffffffffffffffffffff16905090565b5f338585604051602001610758939291906117ef565b6040516020818303038152906040528051906020012090505f61077a82610e12565b90505f6107d385858080601f0160208091040260200160405190810160405280939291908181526020018383808284375f81840152601f19601f8201169050808301925050505050505083610e4590919063ffffffff16565b905060015f9054906101000a900473ffffffffffffffffffffffffffffffffffffffff1673ffffffffffffffffffffffffffffffffffffffff168173ffffffffffffffffffffffffffffffffffffffff1614610864576040517f08c379a000000000000000000000000000000000000000000000000000000000815260040161085b90611875565b60405180910390fd5b60508610156108a8576040517f08c379a000000000000000000000000000000000000000000000000000000000815260040161089f906118dd565b60405180910390fd5b7f000000000000000000000000000000000000000000000000000000000000000073ffffffffffffffffffffffffffffffffffffffff166323b872dd33306002546040518463ffffffff1660e01b8152600401610907939291906118fb565b6020604051808303815f875af1158015610923573d5f5f3e3d5ffd5b505050506040513d601f19601f820116820180604052508101906109479190611604565b610986576040517f08c379a000000000000000000000000000000000000000000000000000000000815260040161097d9061197a565b60405180910390fd5b5f338860405160200161099a929190611520565b60405160208183030381529060405280519060200120905060405180608001604052803373ffffffffffffffffffffffffffffffffffffffff1681526020018973ffffffffffffffffffffffffffffffffffffffff16815260200160025481526020016001151581525060035f8381526020019081526020015f205f820151815f015f6101000a81548173ffffffffffffffffffffffffffffffffffffffff021916908373ffffffffffffffffffffffffffffffffffffffff1602179055506020820151816001015f6101000a81548173ffffffffffffffffffffffffffffffffffffffff021916908373ffffffffffffffffffffffffffffffffffffffff160217905550604082015181600201556060820151816003015f6101000a81548160ff0219169083151502179055509050508773ffffffffffffffffffffffffffffffffffffffff163373ffffffffffffffffffffffffffffffffffffffff167f66dd421dcb5654de3092d8b2556642860b95a83d540f569b2c9eaaf4244da1c6600254604051610b2a91906111cc565b60405180910390a35050505050505050565b6003602052805f5260405f205f91509050805f015f9054906101000a900473ffffffffffffffffffffffffffffffffffffffff1690806001015f9054906101000a900473ffffffffffffffffffffffffffffffffffffffff1690806002015490806003015f9054906101000a900460ff16905084565b60015f9054906101000a900473ffffffffffffffffffffffffffffffffffffffff1681565b7f000000000000000000000000000000000000000000000000000000000000000081565b610c03610cca565b5f73ffffffffffffffffffffffffffffffffffffffff168173ffffffffffffffffffffffffffffffffffffffff1603610c73575f6040517f1e4fbdf7000000000000000000000000000000000000000000000000000000008152600401610c6a919061121f565b60405180910390fd5b610c7c81610d51565b50565b610c87610cca565b8060015f6101000a81548173ffffffffffffffffffffffffffffffffffffffff021916908373ffffffffffffffffffffffffffffffffffffffff16021790555050565b610cd2610e6f565b73ffffffffffffffffffffffffffffffffffffffff16610cf061071b565b73ffffffffffffffffffffffffffffffffffffffff1614610d4f57610d13610e6f565b6040517f118cdaa7000000000000000000000000000000000000000000000000000000008152600401610d46919061121f565b60405180910390fd5b565b5f5f5f9054906101000a900473ffffffffffffffffffffffffffffffffffffffff169050815f5f6101000a81548173ffffffffffffffffffffffffffffffffffffffff021916908373ffffffffffffffffffffffffffffffffffffffff1602179055508173ffffffffffffffffffffffffffffffffffffffff168173ffffffffffffffffffffffffffffffffffffffff167f8be0079c531659141344cd1fd0a4f28419497f9722a3daafe3b4186f6b6457e060405160405180910390a35050565b5f7f19457468657265756d205369676e6564204d6573736167653a0a3332000000005f5281601c52603c5f209050919050565b5f5f5f5f610e538686610e76565b925092509250610e638282610ecb565b82935050505092915050565b5f33905090565b5f5f5f6041845103610eb6575f5f5f602087015192506040870151915060608701515f1a9050610ea88882858561102d565b955095509550505050610ec4565b5f600285515f1b9250925092505b9250925092565b5f6003811115610ede57610edd611998565b5b826003811115610ef157610ef0611998565b5b03156110295760016003811115610f0b57610f0a611998565b5b826003811115610f1e57610f1d611998565b5b03610f55576040517ff645eedf00000000000000000000000000000000000000000000000000000000815260040160405180910390fd5b60026003811115610f6957610f68611998565b5b826003811115610f7c57610f7b611998565b5b03610fc057805f1c6040517ffce698f7000000000000000000000000000000000000000000000000000000008152600401610fb791906111cc565b60405180910390fd5b600380811115610fd357610fd2611998565b5b826003811115610fe657610fe5611998565b5b0361102857806040517fd78bce0c00000000000000000000000000000000000000000000000000000000815260040161101f91906119d4565b60405180910390fd5b5b5050565b5f5f5f7f7fffffffffffffffffffffffffffffff5d576e7357a4501ddfe92f46681b20a0845f1c1115611069575f60038592509250925061110a565b5f6001888888886040515f815260200160405260405161108c9493929190611a08565b6020604051602081039080840390855afa1580156110ac573d5f5f3e3d5ffd5b5050506020604051035190505f73ffffffffffffffffffffffffffffffffffffffff168173ffffffffffffffffffffffffffffffffffffffff16036110fd575f60015f5f1b9350935093505061110a565b805f5f5f1b935093509350505b9450945094915050565b5f5ffd5b5f5ffd5b5f73ffffffffffffffffffffffffffffffffffffffff82169050919050565b5f6111458261111c565b9050919050565b6111558161113b565b811461115f575f5ffd5b50565b5f813590506111708161114c565b92915050565b5f5f6040838503121561118c5761118b611114565b5b5f61119985828601611162565b92505060206111aa85828601611162565b9150509250929050565b5f819050919050565b6111c6816111b4565b82525050565b5f6020820190506111df5f8301846111bd565b92915050565b5f602082840312156111fa576111f9611114565b5b5f61120784828501611162565b91505092915050565b6112198161113b565b82525050565b5f6020820190506112325f830184611210565b92915050565b611241816111b4565b811461124b575f5ffd5b50565b5f8135905061125c81611238565b92915050565b5f5ffd5b5f5ffd5b5f5ffd5b5f5f83601f84011261128357611282611262565b5b8235905067ffffffffffffffff8111156112a05761129f611266565b5b6020830191508360018202830111156112bc576112bb61126a565b5b9250929050565b5f5f5f5f606085870312156112db576112da611114565b5b5f6112e887828801611162565b94505060206112f98782880161124e565b935050604085013567ffffffffffffffff81111561131a57611319611118565b5b6113268782880161126e565b925092505092959194509250565b5f819050919050565b61134681611334565b8114611350575f5ffd5b50565b5f813590506113618161133d565b92915050565b5f6020828403121561137c5761137b611114565b5b5f61138984828501611353565b91505092915050565b5f8115159050919050565b6113a681611392565b82525050565b5f6080820190506113bf5f830187611210565b6113cc6020830186611210565b6113d960408301856111bd565b6113e6606083018461139d565b95945050505050565b5f819050919050565b5f61141261140d6114088461111c565b6113ef565b61111c565b9050919050565b5f611423826113f8565b9050919050565b5f61143482611419565b9050919050565b6114448161142a565b82525050565b5f60208201905061145d5f83018461143b565b92915050565b5f82825260208201905092915050565b7f4f6e6c79204149204167656e742063616e20736c6173680000000000000000005f82015250565b5f6114a7601783611463565b91506114b282611473565b602082019050919050565b5f6020820190508181035f8301526114d48161149b565b9050919050565b5f8160601b9050919050565b5f6114f1826114db565b9050919050565b5f611502826114e7565b9050919050565b61151a6115158261113b565b6114f8565b82525050565b5f61152b8285611509565b60148201915061153b8284611509565b6014820191508190509392505050565b7f4e6f20616374697665207374616b6520746f20736c61736800000000000000005f82015250565b5f61157f601883611463565b915061158a8261154b565b602082019050919050565b5f6020820190508181035f8301526115ac81611573565b9050919050565b5f6040820190506115c65f830185611210565b6115d360208301846111bd565b9392505050565b6115e381611392565b81146115ed575f5ffd5b50565b5f815190506115fe816115da565b92915050565b5f6020828403121561161957611618611114565b5b5f611626848285016115f0565b91505092915050565b7f536c617368207472616e73666572206661696c656400000000000000000000005f82015250565b5f611663601583611463565b915061166e8261162f565b602082019050919050565b5f6020820190508181035f83015261169081611657565b9050919050565b7f4e6f20616374697665207374616b6520666f756e6400000000000000000000005f82015250565b5f6116cb601583611463565b91506116d682611697565b602082019050919050565b5f6020820190508181035f8301526116f8816116bf565b9050919050565b7f4f6e6c7920726563697069656e742063616e20636c61696d00000000000000005f82015250565b5f611733601883611463565b915061173e826116ff565b602082019050919050565b5f6020820190508181035f83015261176081611727565b9050919050565b7f436c61696d207472616e73666572206661696c656400000000000000000000005f82015250565b5f61179b601583611463565b91506117a682611767565b602082019050919050565b5f6020820190508181035f8301526117c88161178f565b9050919050565b5f819050919050565b6117e96117e4826111b4565b6117cf565b82525050565b5f6117fa8286611509565b60148201915061180a8285611509565b60148201915061181a82846117d8565b602082019150819050949350505050565b7f496e76616c6964204149204167656e74207369676e61747572650000000000005f82015250565b5f61185f601a83611463565b915061186a8261182b565b602082019050919050565b5f6020820190508181035f83015261188c81611853565b9050919050565b7f4d617463682073636f726520746f6f206c6f7720666f72207374616b696e67005f82015250565b5f6118c7601f83611463565b91506118d282611893565b602082019050919050565b5f6020820190508181035f8301526118f4816118bb565b9050919050565b5f60608201905061190e5f830186611210565b61191b6020830185611210565b61192860408301846111bd565b949350505050565b7f5374616b65206661696c656400000000000000000000000000000000000000005f82015250565b5f611964600c83611463565b915061196f82611930565b602082019050919050565b5f6020820190508181035f83015261199181611958565b9050919050565b7f4e487b71000000000000000000000000000000000000000000000000000000005f52602160045260245ffd5b6119ce81611334565b82525050565b5f6020820190506119e75f8301846119c5565b92915050565b5f60ff82169050919050565b611a02816119ed565b82525050565b5f608082019050611a1b5f8301876119c5565b611a2860208301866119f9565b611a3560408301856119c5565b611a4260608301846119c5565b9594505050505056fea2646970667358221220b43ec275385fcb3e222a232dd3977e34c92a262154bdf57d1d0838aaabd8fd5964736f6c63430008220033","linkReferences":{}},"methodIdentifiers":{"aiAgent()":"a6d5b732","claimStake(address)":"61fdd7df","matches(bytes32)":"9fe9ada3","owner()":"8da5cb5b","rUSD()":"bb2ea881","renounceOwnership()":"715018a6","setAiAgent(address)":"f68f2566","slashStake(address,address)":"57ef63cc","stakeAmount()":"60c7dc47","stakeForMessage(address,uint256,bytes)":"9c5408d6","transferOwnership(address)":"f2fde38b"},"id":33}