{
  "_format": "hh-sol-artifact-1",
  "contractName": "Token42Messaging",
  "sourceName": "contracts/contracts/Token42Messaging.sol",
  "abi": [
    {
      "inputs": [
        {
          "internalType": "address",
          "name": "_rUSD",
          "type": "address"
        },
        {
          "internalType": "address",
          "name": "_aiAgent",
          "type": "address"
        }
      ],
      "stateMutability": "nonpayable",
      "type": "constructor"
    },
    {
      "anonymous": false,
      "inputs": [
        {
          "indexed": true,
          "internalType": "address",
          "name": "recipient",
          "type": "address"
        },
        {
          "indexed": true,
          "internalType": "address",
          "name": "sender",
          "type": "address"
        },
        {
          "indexed": false,
          "internalType": "uint256",
          "name": "amount",
          "type": "uint256"
        }
      ],
      "name": "MessageClaimed",
      "type": "event"
    },
    {
      "anonymous": false,
      "inputs": [
        {
          "indexed": true,
          "internalType": "address",
          "name": "sender",
          "type": "address"
        },
        {
          "indexed": true,
          "internalType": "address",
          "name": "recipient",
          "type": "address"
        },
        {
          "indexed": false,
          "internalType": "uint256",
          "name": "amount",
          "type": "uint256"
        }
      ],
      "name": "MessageStaked",
      "type": "event"
    },
    {
      "anonymous": false,
      "inputs": [
        {
          "indexed": true,
          "internalType": "address",
          "name": "sender",
          "type": "address"
        },
        {
          "indexed": true,
          "internalType": "address",
          "name": "reviewer",
          "type": "address"
        },
        {
          "indexed": false,
          "internalType": "uint256",
          "name": "amount",
          "type": "uint256"
        }
      ],
      "name": "StakeSlashed",
      "type": "event"
    },
    {
      "inputs": [],
      "name": "aiAgent",
      "outputs": [
        {
          "internalType": "address",
          "name": "",
          "type": "address"
        }
      ],
      "stateMutability": "view",
      "type": "function"
    },
    {
      "inputs": [
        {
          "internalType": "address",
          "name": "sender",
          "type": "address"
        }
      ],
      "name": "claimStake",
      "outputs": [],
      "stateMutability": "nonpayable",
      "type": "function"
    },
    {
      "inputs": [
        {
          "internalType": "bytes32",
          "name": "",
          "type": "bytes32"
        }
      ],
      "name": "matches",
      "outputs": [
        {
          "internalType": "address",
          "name": "sender",
          "type": "address"
        },
        {
          "internalType": "address",
          "name": "recipient",
          "type": "address"
        },
        {
          "internalType": "uint256",
          "name": "stake",
          "type": "uint256"
        },
        {
          "internalType": "bool",
          "name": "active",
          "type": "bool"
        }
      ],
      "stateMutability": "view",
      "type": "function"
    },
    {
      "inputs": [],
      "name": "owner",
      "outputs": [
        {
          "internalType": "address",
          "name": "",
          "type": "address"
        }
      ],
      "stateMutability": "view",
      "type": "function"
    },
    {
      "inputs": [],
      "name": "rUSD",
      "outputs": [
        {
          "internalType": "contract IERC20",
          "name": "",
          "type": "address"
        }
      ],
      "stateMutability": "view",
      "type": "function"
    },
    {
      "inputs": [
        {
          "internalType": "address",
          "name": "_aiAgent",
          "type": "address"
        }
      ],
      "name": "setAiAgent",
      "outputs": [],
      "stateMutability": "nonpayable",
      "type": "function"
    },
    {
      "inputs": [
        {
          "internalType": "address",
          "name": "sender",
          "type": "address"
        },
        {
          "internalType": "address",
          "name": "recipient",
          "type": "address"
        }
      ],
      "name": "slashStake",
      "outputs": [],
      "stateMutability": "nonpayable",
      "type": "function"
    },
    {
      "inputs": [],
      "name": "stakeAmount",
      "outputs": [
        {
          "internalType": "uint256",
          "name": "",
          "type": "uint256"
        }
      ],
      "stateMutability": "view",
      "type": "function"
    },
    {
      "inputs": [
        {
          "internalType": "address",
          "name": "recipient",
          "type": "address"
        },
        {
          "internalType": "uint256",
          "name": "matchScore",
          "type": "uint256"
        },
        {
          "internalType": "bytes",
          "name": "signature",
          "type": "bytes"
        }
      ],
      "name": "stakeForMessage",
      "outputs": [],
      "stateMutability": "nonpayable",
      "type": "function"
    }
  ],
  "bytecode": "0x60a0604052670de0b6b3a764000060025534801561001c57600080fd5b50604051611b9c380380611b9c833981810160405281019061003e919061015d565b8173ffffffffffffffffffffffffffffffffffffffff1660808173ffffffffffffffffffffffffffffffffffffffff1681525050806000806101000a81548173ffffffffffffffffffffffffffffffffffffffff021916908373ffffffffffffffffffffffffffffffffffffffff16021790555033600160006101000a81548173ffffffffffffffffffffffffffffffffffffffff021916908373ffffffffffffffffffffffffffffffffffffffff160217905550505061019d565b600080fd5b600073ffffffffffffffffffffffffffffffffffffffff82169050919050565b600061012a826100ff565b9050919050565b61013a8161011f565b811461014557600080fd5b50565b60008151905061015781610131565b92915050565b60008060408385031215610174576101736100fa565b5b600061018285828601610148565b925050602061019385828601610148565b9150509250929050565b6080516119cf6101cd600039600081816102f5015281816105b1015281816108a40152610be401526119cf6000f3fe608060405234801561001057600080fd5b50600436106100935760003560e01c80639c5408d6116100665780639c5408d61461010c5780639fe9ada314610128578063a6d5b7321461015b578063bb2ea88114610179578063f68f25661461019757610093565b806357ef63cc1461009857806360c7dc47146100b457806361fdd7df146100d25780638da5cb5b146100ee575b600080fd5b6100b260048036038101906100ad9190610e6e565b6101b3565b005b6100bc610465565b6040516100c99190610ec7565b60405180910390f35b6100ec60048036038101906100e79190610ee2565b61046b565b005b6100f66106fe565b6040516101039190610f1e565b60405180910390f35b61012660048036038101906101219190610fca565b610724565b005b610142600480360381019061013d9190611074565b610b41565b60405161015294939291906110bc565b60405180910390f35b610163610bbe565b6040516101709190610f1e565b60405180910390f35b610181610be2565b60405161018e9190611160565b60405180910390f35b6101b160048036038101906101ac9190610ee2565b610c06565b005b60008054906101000a900473ffffffffffffffffffffffffffffffffffffffff1673ffffffffffffffffffffffffffffffffffffffff163373ffffffffffffffffffffffffffffffffffffffff1614610241576040517f08c379a0000000000000000000000000000000000000000000000000000000008152600401610238906111d8565b60405180910390fd5b60008282604051602001610256929190611240565b60405160208183030381529060405280519060200120905060006003600083815260200190815260200160002090508060030160009054906101000a900460ff166102d6576040517f08c379a00000000000000000000000000000000000000000000000000000000081526004016102cd906112b8565b60405180910390fd5b60008160030160006101000a81548160ff0219169083151502179055507f000000000000000000000000000000000000000000000000000000000000000073ffffffffffffffffffffffffffffffffffffffff1663a9059cbb600160009054906101000a900473ffffffffffffffffffffffffffffffffffffffff1683600201546040518363ffffffff1660e01b81526004016103749291906112d8565b6020604051808303816000875af1158015610393573d6000803e3d6000fd5b505050506040513d601f19601f820116820180604052508101906103b7919061132d565b6103f6576040517f08c379a00000000000000000000000000000000000000000000000000000000081526004016103ed906113a6565b60405180910390fd5b3373ffffffffffffffffffffffffffffffffffffffff168473ffffffffffffffffffffffffffffffffffffffff167f4093288bc95bfed35a9c3ea0db07d8c6cbd9722cdf769732ee5d735d61c3cf2b83600201546040516104579190610ec7565b60405180910390a350505050565b60025481565b60008133604051602001610480929190611240565b60405160208183030381529060405280519060200120905060006003600083815260200190815260200160002090508060030160009054906101000a900460ff16610500576040517f08c379a00000000000000000000000000000000000000000000000000000000081526004016104f790611412565b60405180910390fd5b3373ffffffffffffffffffffffffffffffffffffffff168160010160009054906101000a900473ffffffffffffffffffffffffffffffffffffffff1673ffffffffffffffffffffffffffffffffffffffff1614610592576040517f08c379a00000000000000000000000000000000000000000000000000000000081526004016105899061147e565b60405180910390fd5b60008160030160006101000a81548160ff0219169083151502179055507f000000000000000000000000000000000000000000000000000000000000000073ffffffffffffffffffffffffffffffffffffffff1663a9059cbb3383600201546040518363ffffffff1660e01b815260040161060e9291906112d8565b6020604051808303816000875af115801561062d573d6000803e3d6000fd5b505050506040513d601f19601f82011682018060405250810190610651919061132d565b610690576040517f08c379a0000000000000000000000000000000000000000000000000000000008152600401610687906114ea565b60405180910390fd5b8273ffffffffffffffffffffffffffffffffffffffff163373ffffffffffffffffffffffffffffffffffffffff167fa22cc0f2ac679a9874ce19d756f0437bf07014685f7fa5ef3f2c687555b21e9583600201546040516106f19190610ec7565b60405180910390a3505050565b600160009054906101000a900473ffffffffffffffffffffffffffffffffffffffff1681565b600033858560405160200161073b9392919061152b565b60405160208183030381529060405280519060200120905060008160405160200161076691906115e0565b60405160208183030381529060405280519060200120905060006107ce8286868080601f016020809104026020016040519081016040528093929190818152602001838380828437600081840152601f19601f82011690508083019250505050505050610cd9565b905060008054906101000a900473ffffffffffffffffffffffffffffffffffffffff1673ffffffffffffffffffffffffffffffffffffffff168173ffffffffffffffffffffffffffffffffffffffff161461085e576040517f08c379a000000000000000000000000000000000000000000000000000000000815260040161085590611652565b60405180910390fd5b60508610156108a2576040517f08c379a0000000000000000000000000000000000000000000000000000000008152600401610899906116be565b60405180910390fd5b7f000000000000000000000000000000000000000000000000000000000000000073ffffffffffffffffffffffffffffffffffffffff166323b872dd33306002546040518463ffffffff1660e01b8152600401610901939291906116de565b6020604051808303816000875af1158015610920573d6000803e3d6000fd5b505050506040513d601f19601f82011682018060405250810190610944919061132d565b610983576040517f08c379a000000000000000000000000000000000000000000000000000000000815260040161097a90611761565b60405180910390fd5b60003388604051602001610998929190611240565b60405160208183030381529060405280519060200120905060405180608001604052803373ffffffffffffffffffffffffffffffffffffffff1681526020018973ffffffffffffffffffffffffffffffffffffffff1681526020016002548152602001600115158152506003600083815260200190815260200160002060008201518160000160006101000a81548173ffffffffffffffffffffffffffffffffffffffff021916908373ffffffffffffffffffffffffffffffffffffffff16021790555060208201518160010160006101000a81548173ffffffffffffffffffffffffffffffffffffffff021916908373ffffffffffffffffffffffffffffffffffffffff1602179055506040820151816002015560608201518160030160006101000a81548160ff0219169083151502179055509050508773ffffffffffffffffffffffffffffffffffffffff163373ffffffffffffffffffffffffffffffffffffffff167f66dd421dcb5654de3092d8b2556642860b95a83d540f569b2c9eaaf4244da1c6600254604051610b2f9190610ec7565b60405180910390a35050505050505050565b60036020528060005260406000206000915090508060000160009054906101000a900473ffffffffffffffffffffffffffffffffffffffff16908060010160009054906101000a900473ffffffffffffffffffffffffffffffffffffffff16908060020154908060030160009054906101000a900460ff16905084565b60008054906101000a900473ffffffffffffffffffffffffffffffffffffffff1681565b7f000000000000000000000000000000000000000000000000000000000000000081565b600160009054906101000a900473ffffffffffffffffffffffffffffffffffffffff1673ffffffffffffffffffffffffffffffffffffffff163373ffffffffffffffffffffffffffffffffffffffff1614610c96576040517f08c379a0000000000000000000000000000000000000000000000000000000008152600401610c8d906117cd565b60405180910390fd5b806000806101000a81548173ffffffffffffffffffffffffffffffffffffffff021916908373ffffffffffffffffffffffffffffffffffffffff16021790555050565b60006041825114610d1f576040517f08c379a0000000000000000000000000000000000000000000000000000000008152600401610d1690611839565b60405180910390fd5b60008060006020850151925060408501519150606085015160001a9050601b8160ff161015610d5857601b81610d559190611895565b90505b601b8160ff161480610d6d5750601c8160ff16145b610dac576040517f08c379a0000000000000000000000000000000000000000000000000000000008152600401610da390611916565b60405180910390fd5b60018682858560405160008152602001604052604051610dcf9493929190611954565b6020604051602081039080840390855afa158015610df1573d6000803e3d6000fd5b50505060206040510351935050505092915050565b600080fd5b600080fd5b600073ffffffffffffffffffffffffffffffffffffffff82169050919050565b6000610e3b82610e10565b9050919050565b610e4b81610e30565b8114610e5657600080fd5b50565b600081359050610e6881610e42565b92915050565b60008060408385031215610e8557610e84610e06565b5b6000610e9385828601610e59565b9250506020610ea485828601610e59565b9150509250929050565b6000819050919050565b610ec181610eae565b82525050565b6000602082019050610edc6000830184610eb8565b92915050565b600060208284031215610ef857610ef7610e06565b5b6000610f0684828501610e59565b91505092915050565b610f1881610e30565b82525050565b6000602082019050610f336000830184610f0f565b92915050565b610f4281610eae565b8114610f4d57600080fd5b50565b600081359050610f5f81610f39565b92915050565b600080fd5b600080fd5b600080fd5b60008083601f840112610f8a57610f89610f65565b5b8235905067ffffffffffffffff811115610fa757610fa6610f6a565b5b602083019150836001820283011115610fc357610fc2610f6f565b5b9250929050565b60008060008060608587031215610fe457610fe3610e06565b5b6000610ff287828801610e59565b945050602061100387828801610f50565b935050604085013567ffffffffffffffff81111561102457611023610e0b565b5b61103087828801610f74565b925092505092959194509250565b6000819050919050565b6110518161103e565b811461105c57600080fd5b50565b60008135905061106e81611048565b92915050565b60006020828403121561108a57611089610e06565b5b60006110988482850161105f565b91505092915050565b60008115159050919050565b6110b6816110a1565b82525050565b60006080820190506110d16000830187610f0f565b6110de6020830186610f0f565b6110eb6040830185610eb8565b6110f860608301846110ad565b95945050505050565b6000819050919050565b600061112661112161111c84610e10565b611101565b610e10565b9050919050565b60006111388261110b565b9050919050565b600061114a8261112d565b9050919050565b61115a8161113f565b82525050565b60006020820190506111756000830184611151565b92915050565b600082825260208201905092915050565b7f4f6e6c79204149204167656e742063616e20736c617368000000000000000000600082015250565b60006111c260178361117b565b91506111cd8261118c565b602082019050919050565b600060208201905081810360008301526111f1816111b5565b9050919050565b60008160601b9050919050565b6000611210826111f8565b9050919050565b600061122282611205565b9050919050565b61123a61123582610e30565b611217565b82525050565b600061124c8285611229565b60148201915061125c8284611229565b6014820191508190509392505050565b7f4e6f20616374697665207374616b6520746f20736c6173680000000000000000600082015250565b60006112a260188361117b565b91506112ad8261126c565b602082019050919050565b600060208201905081810360008301526112d181611295565b9050919050565b60006040820190506112ed6000830185610f0f565b6112fa6020830184610eb8565b9392505050565b61130a816110a1565b811461131557600080fd5b50565b60008151905061132781611301565b92915050565b60006020828403121561134357611342610e06565b5b600061135184828501611318565b91505092915050565b7f536c617368207472616e73666572206661696c65640000000000000000000000600082015250565b600061139060158361117b565b915061139b8261135a565b602082019050919050565b600060208201905081810360008301526113bf81611383565b9050919050565b7f4e6f20616374697665207374616b6520666f756e640000000000000000000000600082015250565b60006113fc60158361117b565b9150611407826113c6565b602082019050919050565b6000602082019050818103600083015261142b816113ef565b9050919050565b7f4f6e6c7920726563697069656e742063616e20636c61696d0000000000000000600082015250565b600061146860188361117b565b915061147382611432565b602082019050919050565b600060208201905081810360008301526114978161145b565b9050919050565b7f436c61696d207472616e73666572206661696c65640000000000000000000000600082015250565b60006114d460158361117b565b91506114df8261149e565b602082019050919050565b60006020820190508181036000830152611503816114c7565b9050919050565b6000819050919050565b61152561152082610eae565b61150a565b82525050565b60006115378286611229565b6014820191506115478285611229565b6014820191506115578284611514565b602082019150819050949350505050565b600081905092915050565b7f19457468657265756d205369676e6564204d6573736167653a0a333200000000600082015250565b60006115a9601c83611568565b91506115b482611573565b601c82019050919050565b6000819050919050565b6115da6115d58261103e565b6115bf565b82525050565b60006115eb8261159c565b91506115f782846115c9565b60208201915081905092915050565b7f496e76616c6964204149204167656e74207369676e6174757265000000000000600082015250565b600061163c601a8361117b565b915061164782611606565b602082019050919050565b6000602082019050818103600083015261166b8161162f565b9050919050565b7f4d617463682073636f726520746f6f206c6f7720666f72207374616b696e6700600082015250565b60006116a8601f8361117b565b91506116b382611672565b602082019050919050565b600060208201905081810360008301526116d78161169b565b9050919050565b60006060820190506116f36000830186610f0f565b6117006020830185610f0f565b61170d6040830184610eb8565b949350505050565b7f5374616b65206661696c65640000000000000000000000000000000000000000600082015250565b600061174b600c8361117b565b915061175682611715565b602082019050919050565b6000602082019050818103600083015261177a8161173e565b9050919050565b7f4e6f74206f776e65720000000000000000000000000000000000000000000000600082015250565b60006117b760098361117b565b91506117c282611781565b602082019050919050565b600060208201905081810360008301526117e6816117aa565b9050919050565b7f496e76616c6964207369676e6174757265206c656e6774680000000000000000600082015250565b600061182360188361117b565b915061182e826117ed565b602082019050919050565b6000602082019050818103600083015261185281611816565b9050919050565b600060ff82169050919050565b7f4e487b7100000000000000000000000000000000000000000000000000000000600052601160045260246000fd5b60006118a082611859565b91506118ab83611859565b9250828201905060ff8111156118c4576118c3611866565b5b92915050565b7f496e76616c6964207369676e617475726520762076616c756500000000000000600082015250565b600061190060198361117b565b915061190b826118ca565b602082019050919050565b6000602082019050818103600083015261192f816118f3565b9050919050565b61193f8161103e565b82525050565b61194e81611859565b82525050565b60006080820190506119696000830187611936565b6119766020830186611945565b6119836040830185611936565b6119906060830184611936565b9594505050505056fea26469706673582212209455efb9d7ea9ca9c9fb9a03115aa4389c9f78af2fa51d3858a72a745b10793264736f6c634300081c0033",
  "linkReferences": {},
  "deployedLinkReferences": {}
}